:100000000C9430000C949F090C949F090C949F0948
:100010000C949F090C949F090C949F090C949F09C0
:100020000C949F090C949F090C949F090C949F09B0
:100030000C949F090C949F090C949F090C949F09A0
:100040000C949F090C949F090C949F090C949F0990
:100050000C949F0900600062800062009000134CC5
:1000600011241FBECFE5D8E0DEBFCDBFE4E5F0E050
:1000700040E017C0B591A59135912591059107FDF7
:100080000CC095918591EF01F92FE82F05900D9205
:10009000A217B307D9F7FE0104C01D92A217B30738
:1000A000E1F7E036F40731F70E9446030C9431097A
:0400B000F894FFCFF2
:1000B400AEE0B0E0E0E6F0E00C948B084C016B019C
:1000C4001A8219828FEF9FEF9C838B831E821D827D
:1000D40058874F833A872987A12CB12CD6016D907C
:1000E4007C90F301EA0DFB1D808181110FC0D601C4
:1000F400ED93FC938081853209F0D3C13F01BFEFBA
:100104006B1A7B0AF6017182608219C0853279F319
:10011400B401082E000C990B0E94CD054FEFA41AD0
:10012400B40ADCCF8C32ACF08D32F9F489819A8137
:1001340081609A8389833196D601ED93FC93D6012D
:10014400ED91FC9180818B3269F789819A81846079
:10015400F0CF803221F489819A818860EACF83329A
:1001640051F489819A818061E4CF803321F48981BB
:100174009A818260DECFB701C6010E94AF079E83D9
:100184008D8397FF0BC029813A81B1E02B273A83F5
:1001940029839195819591099E838D8389819A8183
:1001A40080FF03C08D7F9A838983D601ED91FC91F2
:1001B400119780818E3249F43196ED93FC93B70107
:1001C400C6010E94AF079C838B83C6010E944B0823
:1001D400582ED601ED91FC918081082E000C990BCC
:1001E4000E945509893609F443C084F4833609F41E
:1001F40002C134F4853209F427C18136E1F030C1FB
:100204008436B1F188360CF4D9C02AC1803709F498
:100214009AC03CF48E3609F4BCC08F3609F461C030
:100224001FC1853709F440C0883709F476C0833785
:1002340009F016C1F3C0652D70E0A701CE010B963D
:100244000E940000892B09F426C1D601ED91FC918E
:100254001197CF0101968D939C932081AE01455F48
:100264005F4FBE016F5F7F4FC4010E94000010C149
:10027400652D70E0970141E050E0CE010B960E949D
:10028400A704892B09F407C1F601808191810196A5
:1002940091838083AE01455F5F4FBE016F5F7F4FE7
:1002A400C4010E94CB03F4C0652D70E0970140E0C7
:1002B40050E0CE010B960E94A704892B09F4EBC0F1
:1002C400D6018D919C91119701968D939C93AE01CB
:1002D400455F5F4FBE016F5F7F4FC4010E941906E7
:1002E400D7C0652D70E0970140E050E0CE010B9639
:1002F4000E94A704892B09F4CEC0F6018081918164
:10030400019691838083AE01455F5F4FBE016F5FAD
:100314007F4FC4010E947405BBC0652D70E0970136
:1003240040E050E0CE010B960E94A704892B09F40B
:10033400B2C0D601ED91FC911197CF0101968D9336
:100344009C9320811CC0970140E050E060EF70E076
:10035400CE010B960E94A704892B09F49CC0F601D8
:10036400808191810196918380838B859C85892BE3
:1003740029F420E030E04AE850E084C028E7AE01E8
:10038400455F5F4FBE016F5F7F4FC4010E945802FB
:100394007FC0A501400F511F652D70E09701CE016C
:1003A4000B960E940000892B09F475C0D6018D912B
:1003B4009C91119701968D939C9373C0652D70E069
:1003C400A701CE010B960E940000892B09F463C09B
:1003D400D601ED91FC911197CF0101968D939C93D9
:1003E4002081AE01455F5F4FBE016F5F7F4FC40147
:1003F4000E9400004DC0B0E85B124DC0F601808140
:100404009181019691838083D701ED91FC9111979D
:10041400CF0102968D939C93808120C0B0E85B123B
:100424003AC0F60180819181019691838083D7013E
:10043400ED91FC911197CF0102968D939C9340818D
:10044400518120E030E01EC0B0E85B1224C0F60108
:10045400208131812F5F3F4F318320838B870DC0F3
:1004640085E28B87D6016D927C921A8219821E8254
:100474001D828FEF9FEF9C838B8321E030E0AE01E0
:10048400455F5F4FBE016F5F7F4FC4010E94DD0770
:100494008A0D9B1D07C0F60180819181019691838D
:0C04A4008083C5012E96EFE00C94A708A1
:1004B000AFE0B0E0EEE5F2E00C9488081C016B01BF
:1004C0005A8349832B83FB018281938184809580A9
:1004D00000811181A680B78097FD02C00D7F02C008
:1004E00081E090E0E981FA814080518062807380F0
:1004F0009801207133273D832C83740104FF08C0C9
:10050000411451046104710419F032E0E31AF10856
:10051000F801E870FF27FF83EE8303FF03C0F1E0DB
:10052000EF1AF108F6010084F185E02D3197FF877D
:10053000EE87EA0DFB1D10829C012E193F093987B9
:100540002887C801827099279B878A87EB818E2F25
:10055000EE0F990B9C01215431093D872C872E8584
:100560003F852230310530F48C819D81892B09F043
:1005700042C05CC0411451046104710461F18E8574
:100580009F8501979F878E87C2018F7099278A3038
:10059000910514F4C09602C0895A9F4FEC85FD85E1
:1005A0007A9748F49C012062215631092A3131059D
:1005B00010F40E943C09EE85FF85EA0DFB1D808347
:1005C000F1E0EF1AF10884E0769467945794479429
:1005D0008A95D1F7C4CF888599858E0D9F1D1816F1
:1005E00019066CF21E141F040CF0BECFEA85FB85C1
:1005F000EF2B29F6B9CFE981FA8180819181A2811F
:10060000B381892B8A2B8B2B89F0EE85FF85EA0D30
:10061000FB1D31972B8120838E859F8502979F87B5
:100620008E87FC01EA0DFB1D80E38083EE81FF8154
:10063000EF2B59F02E853F85215031093F872E87BA
:10064000F901EA0DFB1D80E28083F60140855185AA
:10065000415051092E853F85421B530BB9016A0D4C
:100660007B1D9401C1010E9413079C01F10180814F
:10067000918190FF06C0F6018281938182179307D2
:0C0680000CF4C9012F96E2E10C94A408D0
:10068C00CF93DF93CDB7DEB7A0970FB6F894DEBF4C
:10069C000FBECDBF0E9445090E944D090E945D0905
:1006AC000E9499090E948C098FEF90E09BBD8ABD36
:1006BC0099BD88BD0F2EF8E7CF2EF0E0DF2EF02D80
:1006CC00CE0101967C010E949D068C0186E00E9461
:1006DC0026099C01A4EFB1E00E940909DC01CB01C1
:1006EC00072E7AE0B695A795979587957A95D1F7C9
:1006FC00702D9F938F931F930F93DF92CF92FF9246
:10070C00EF920E94D708C7010E94FA080150110904
:10071C000FB6F894DEBF0FBECDBF0E30110518F426
:10072C008BB3807F8BBB0E948009882321F18C3492
:10073C00D1F028F4823469F0863431F01CC0823553
:10074C0069F08335A9F017C08BB3807F85608BBBB4
:10075C0012C08BB3807F8A608BBB0DC08BB3807F44
:10076C0086608BBB08C08BB3807F89608BBB03C05A
:10077C008BB3807F8BBB9FEF20E782E091502040B2
:0A078C008040E1F700C000009ECF9E
:10079600A2E0B0E0E1EDF3E00C9488083C016B01C7
:1007A600FB0122813381A480B580808191819A8367
:1007B600898386809780FA01208031804280538029
:1007C600B201A10157FE07C044275527BA014219B5
:1007D60053096409750937FD03C08D7F9A838983A0
:1007E600950157FC05C0898182FD02C083FF02C0C6
:1007F60021503109CE0101967C010AE010E0C601C4
:100806000E940F0557FC03C0298122FF0AC00197E9
:10081600F401E80FF91F57FC02C02BE209C02DE2D4
:1008260007C023FF06C00197F401E80FF91F20E275
:10083600208309811A81F60140855185415051096D
:10084600481B590BB401680F791F9501C3010E941B
:1008560013079C01F3018081918190FF06C0F60188
:1008660082819381821793070CF4C9012296E2E1F3
:040876000C94A40832
:10087A000FC00E946B0938F00E94720920F095237C
:10088A0011F00C9486090C949C0911240C946509A6
:10089A000E94070870F3959FC1F3950F50E0551F0A
:1008AA00629FF001729FBB27F00DB11D639FAA27BB
:1008BA00F00DB11DAA1F649F6627B00DA11D661F0A
:1008CA00829F2227B00DA11D621F739FB00DA11D2B
:1008DA00621F839FA00D611D221F749F3327A00DE5
:1008EA00611D231F849F600D211D822F762F6A2F81
:1008FA0011249F5750409AF0F1F088234AF0EE0FE6
:10090A00FF1FBB1F661F771F881F91505040A9F712
:10091A009E3F510580F00C9486090C9465095F3F4F
:10092A00E4F3983ED4F3869577956795B795F7954E
:10093A00E7959F5FC1F7FE2B880F911D96958795C6
:04094A0097F908957C
:10094E00CF93DF93DC01F90168387105F1F05CF4A7
:10095E006138710561F164387105A1F16038710576
:10096E0009F051C02FC0603C710509F441C0603FD1
:10097E007105F1F1603A710509F045C0C081D18170
:10098E00CE0102969183808325C0C081D181CE0194
:10099E00029691838083452B39F04881042E000CFA
:1009AE00550B660B770B1CC0488150E029C0C081E7
:1009BE00D181CE01049691838083488159816A81C9
:1009CE007B810EC0C081D181CE010296918380833E
:1009DE00452BA1F048815981052E000C660B770B33
:1009EE004D935D936D937C93139781E090E00DC0D2
:1009FE00C081D181CE010296918380834881598135
:100A0E0060E070E0EDCF80E090E0DF91CF9108954F
:100A1E00A0E0B0E0E5E1F5E00C948A08DC012801E5
:100A2E001696AD90BC901797F70180819181129622
:100A3E00ED91FC9113971896CD91DC911997219712
:100A4E00F7FF02C0E1E0F0E0CA0DDB1D188269017C
:100A5E00A1E0B0E08F01021B130B4C01F2E08F22DC
:100A6E009924052C000C66087708CE018A199B097B
:100A7E00CA15DB0519F1411551056105710589F09E
:100A8E00CB01BA01A30192010E942908CA01A62F27
:100A9E00B72F605D6A9341E0C41AD108A901BC0169
:100AAE00E4CF98012C0D3D1D121613064CF31C14A9
:100ABE001D0434F48114910419F702C080E090E013
:100ACE00AB2B31F4F701208131812F7E31832083CE
:0A0ADE00CDB7DEB7E0E10C94A608E6
:100AE800A2E0B0E0EAE7F5E00C948C084C016B0159
:100AF800FB012281338164807580808191819A8392
:100B08008983A680B78037FD03C08D7F9A83898348
:100B1800FA014081518162817381CE0101967C0185
:100B280008E010E09301C6010E940F05298124FF07
:100B380006C00197F501E80FF91F20E320832981FA
:100B480023FF06C00197F501E80FF91F20E2208373
:100B580009811A81F6014085518541505109481B88
:100B6800590BB501680F791F9301C4010E9413073F
:100B78009C01F4018081918190FF06C0F601828179
:100B88009381821793070CF4C9012296EEE00C9426
:020B9800A808AB
:100B9A000F931F93CF93DF93DB01109719F48FEF15
:100BAA009FEF3DC02D913C91119730FF25C01696BD
:100BBA004D915C91179714962D913C911597421778
:100BCA00530778F41296ED91FC911397808312964D
:100BDA002D913C9113972F5F3F4F13963C932E9381
:100BEA00129716962D913C9117972F5F3F4F1796A4
:100BFA003C932E93169713C01C96ED91FC911D976A
:100C0A00309769F2EB01092F182F0995892B39F6CC
:100C1A008E819F8101969F838E83812F902FDF91F2
:080C2A00CF911F910F91089575
:100C3200A2E0B0E0EFE1F6E00C948C085C016B01FD
:100C4200FB012281338184809580808191819A8306
:100C520089836680778037FD03C08D7F9A8389837D
:100C6200FA014081518162817381CE0101967C013A
:100C72000AE010E09401C6010E940F0509811A8161
:100C8200F6014085518541505109481B590BB3016A
:100C9200680F791F9401C5010E9413079C01F50199
:100CA2008081918190FF06C0F60182819381821733
:0E0CB20093070CF4C9012296EEE00C94A808FA
:100CC000E89409C097FB3EF49095809570956195E6
:100CD0007F4F8F4F9F4F9923A9F0F92F96E9BB279C
:100CE0009395F695879577956795B795F111F8CF18
:100CF000FAF4BB0F11F460FF1BC06F5F7F4F8F4F83
:100D00009F4F16C0882311F096E911C0772321F078
:100D10009EE8872F762F05C0662371F096E8862F10
:100D200070E060E02AF09A95660F771F881FDAF767
:0A0D3000880F9695879597F90895AE
:100D3A00DC982AE02A95F1F700C0DC9A85E38A95C7
:100D4A00F1F70000DC9881E395E706C025E02A95D3
:100D5A00F1F70000019729F1CD9BF8CF60E070E030
:100D6A000AC06F5F7F4F85E08A95F1F70000613313
:100D7A0025E7720711F0CD99F4CF80E090E00E9448
:100D8A00600626E933E44BE05DE30E94950920E022
:100D9A0030E040E05FE30E9495090E948007CB01A2
:080DAA00089587EE93E008951F
:100DB200A0E1B0E0EFEDF6E00C949408FB01BA017B
:100DC200AE014F5F5F4F7A0140E1D7011D924A9514
:100DD200E9F742E051E05A8349839C838B83F7FF12
:100DE20009C08FE490E090936100809360008FEFE0
:100DF2009FEF14C0A9018C013197FE83ED83C701D7
:100E02000E94BF084F8158852D813E8142175307AA
:100E120008F49A01F801E20FF31F10826096E6E0EF
:040E22000C94B00874
:100E2600A0E0B0E0E9E1F7E00C948E086C015B010C
:100E36007A01E901480181E08822992400FD03C076
:100E46004217530750F0A701B501C6010E946B086F
:100E5600EC16FD0610F0C70117C08E010E191F090A
:100E66000115110541F0B60180E290E00E94CD0522
:100E760001501109F5CF8114910429F4A701B50198
:100E8600C6010E946B08CE01CDB7DEB7ECE00C942C
:020E9600AA08A8
:100E9800A2E8B0E0E2E5F7E00C948E085C014A01B4
:100EA8007A836983C12CD12CE981FA8180818823D6
:100EB800E9F07401860120E830E0AE014D5F5F4F34
:100EC800BE016F5F7F4FC5010E945A008C0D9D1DAA
:100ED8008C159D054CF48FE490E09093610080930D
:100EE80060008FEF9FEF03C06C01DECFC601CE57C5
:080EF800DF4FECE00C94AA08A6
:100F00000E940F0888F09F5798F0B92F9927B75182
:100F1000B0F0E1F0660F771F881F991F1AF0BA959D
:100F2000C9F714C0B13091F00E946409B1E008958E
:100F30000C946409672F782F8827B85F39F0B93F80
:100F4000CCF3869577956795B395D9F73EF4909550
:0E0F50008095709561957F4F8F4F9F4F08954C
:100F5E00DC01ED91FC91119780818A3221F080E0C5
:100F6E0090E03AE00EC03196ED93FC93DB01ED91EB
:100F7E00FC911197CF0102968D939C938081918164
:100F8E000895ED91FC911197208120532A3068F439
:100F9E00389FA001399F500D1124CA01820F911D57
:0C0FAE0031961196FC93EE93ECCF089561
:100FBA00A0E0B0E0E3EEF7E00C9490087C01FB01BE
:100FCA00EA01C901A280B380C480D5800081118161
:100FDA00209711F4C3E8D0E0009719F4CE010E94DB
:100FEA001809B7FC04C0A816B90608F4C501960189
:100FFA00AC01BE01C7010E941307CDB7DEB7EAE014
:04100A000C94AC088E
:10100E0057FD9058440F551F59F05F3F71F04795AB
:10101E00880F97FB991F61F09F3F79F08795089590
:10102E00121613061406551FF2CF4695F1DF08C0AF
:10103E00161617061806991FF1CF869571056105CC
:04104E000894089565
:10105200A1E21A2EAA1BBB1BFD010DC0AA1FBB1FBA
:10106200EE1FFF1FA217B307E407F50720F0A21B2C
:10107200B30BE40BF50B661F771F881F991F1A9499
:1010820069F760957095809590959B01AC01BD01C3
:04109200CF010895ED
:10109600CF93DF93EC0190E0E92FF0E0EE0FFF1F16
:1010A600EE59FF4F8081811102C081810EC0A88157
:1010B600B9812C91821305C091811196B983A883B9
:1010C60001C09F5F9B3040F3892FDF91CF91089538
:1010D600A0E0B0E0E1E7F8E00C9492086C01EB01C7
:1010E6008A017B01E40EF51ECE15DF0541F08991DC
:1010F600B601082E000C990B0E94CD05F5CFC8014C
:0A110600CDB7DEB7E8E00C94AE08A8
:101110002F923F924F925F926F927F928F929F9207
:10112000AF92BF92CF92DF92EF92FF920F931F93F5
:10113000CF93DF93CDB7DEB7CA1BDB0B0FB6F894A6
:08114000DEBF0FBECDBF099414
:101148002A88398848885F846E847D848C849B844F
:10115800AA84B984C884DF80EE80FD800C811B815D
:10116800AA81B981CE0FD11D0FB6F894DEBF0FBE8C
:06117800CDBFED0108955A
:10117E00A2E0B0E0E5ECF8E00C9496088C015A83FE
:10118E004983AE014F5F5F4F0E944C07F8012081EB
:10119E0024FF02C08FEF9FEF2296E4E00C94B2087A
:1011AE00A0E0B0E0EDEDF8E00C949808AE01475FDA
:1011BE005F4F6F8178858D819E810E947909E2E073
:0411CE000C94B408C1
:1011D200092E0394000C11F4882352F0BB0F40F443
:1011E200BF2B11F460FF04C06F5F7F4F8F4F9F4F83
:0211F20008955E
:1011F400CF93DF93EC018881882331F021960E94FC
:0E120400910989918111FBCFDF91CF9108955F
:10121200A29FB001B39FC001A39F700D811D112435
:0E122200911DB29F700D811D1124911D089524
:10123000FC01AF014F5F5F4F2081222311F0FA01C3
:0C124000F8CF9F01281B390BC90108954D
:10124C0097B1987F8770892B87B9369A3699FECFDC
:06125C0084B195B1089574
:10126200EC010E94A4090E94A309CE010E94A509D3
:06127200CE010E94A1095B
:101278009C01215631092A31310510F48F759927BF
:021288000895C7
:10128A0087E689B910BC88E18AB986E880BD0895E5
:10129A0081B3806381BB81EA8FBD8BE08EBD0895E7
:1012AA009C01215431092A31310508F480620895DC
:0E12BA008AB38F608ABB8BB3807F8BBB089595
:0E12C800E894BB2766277727CB0197F9089596
:0E12D60000240A941616170618060906089535
:0E12E40000240A941216130614060506089537
:0E12F2009A01AB016FEF7FE70E94D9060895C5
:0C1300005F9B02C08CB1089580E008954E
:0C130C0097F99F6780E870E060E00895AA
:0A13180080E487B987E886B90895DC
:081322005D9BFECF8CB908951C
:08132A000E943D040C94E90847
:06133200D49AD59808953D
:061338009FEF80EC089518
:04133E000C9400000B
:041342000E945800AD
:02134600089508
:02134800089506
:02134A00089504
:10134C0068076C094C836A9074A07AC00080688826
:06135C0000846C82008198
:0B136200443A25642C543A2564230013
:07136D00286E756C6C29006D
:06137400286E696C2900DF
:00000001FF
